:100000000C9434000C9451000C9451000C94510049
:100010000C9451000C9451000C9451000C9451001C
:100020000C9451000C9451000C9451000C9451000C
:100030000C9451000C9451000C9451000C945100FC
:100040000C9451000C9451000C9451000C945100EC
:100050000C9451000C9451000C9451000C945100DC
:100060000C9451000C94510011241FBECFEFD8E026
:10007000DEBFCDBF11E0A0E0B1E0EAE2FDE002C0EA
:1000800005900D92A835B107D9F711E0A8E5B1E0C8
:1000900001C01D92AA35B107E1F70E9453000C94EC
:1000A00093060C940000CF93DF93CDB7DEB7A097F3
:1000B0000FB6F894DEBF0FBECDBF84E090E00E9483
:1000C000AD01E12CF12C1AE080E0A82E81E0B82EE1
:1000D00097E0892E91E0992ECC24C394D12CCC0E9C
:1000E000DD1E20C0FF92EF921F921F93BF92AF922E
:1000F0009F928F92DF92CF920E94AC03C6010E9422
:10010000B7022FEF89E698E1215080409040E1F757
:1001100000C000002FEFE21AF20A0FB6F894DEBF1B
:100120000FBECDBF94E0E916F104E4F28EE091E059
:100130000E94B7022FEF87EA91E62150804090405D
:10014000E1F700C000008DE191E00E94B7022FEFBF
:1001500087EA91E6215080409040E1F700C000001E
:100160008BE291E00E94B7022FEF87EA91E62150DF
:1001700080409040E1F700C0000062E471E086E159
:1001800090E00E9409032FEF87EA91E6215080401A
:100190009040E1F700C00000E12CF12CC3CF37B153
:1001A0002AB187B1886387B943984598449A439A9E
:1001B000579802C04398439A4F99FCCF84E090E04F
:1001C0000197F1F737B92AB9089557B14AB128E331
:1001D00027B92FEF2AB945984498209158013091BA
:1001E00059012830310559F443988BB9439AE0E915
:1001F000F1E0DF011197F1F743983197F1F7209182
:1002000058013091590124303105F1F443989C0193
:10021000207F33272BB9439A20E931E0F901319748
:10022000F1F74398F9013197F1F7439864E0880FAB
:10023000991F6A95E1F78BB9439AC9010197F1F7C4
:100240004398C9010197F1F757B94AB90895EF9258
:10025000FF92CF93DF937C01D7B1CAB188E387B90E
:100260008FEF8AB9CB0180680E94E500459A4498D7
:100270008091580190915901089759F44398EBB82F
:10028000439A80E991E0FC013197F1F74398019797
:10029000F1F780915801909159010497F1F4439836
:1002A000C701807F99278BB9439A20E931E0C901C2
:1002B0000197F1F74398C9010197F1F7439874E06A
:1002C000EE0CFF1C7A95E1F7EBB8439AC901019750
:1002D000F1F74398C9010197F1F7D7B9CAB9DF918E
:1002E000CF91FF90EF90089537B12AB188E387B995
:1002F0008FEF8AB94598449880915801909159019F
:10030000089761F4439881E08BB9439A80E49FE1B8
:10031000FC013197F1F743980197F1F7809158016B
:10032000909159010497B1F443981BB8439A80E423
:100330009FE1FC013197F1F74398FC013197F1F708
:10034000439840E14BB9439AFC013197F1F7439848
:100350000197F1F737B92AB90895CF92DF92EF925A
:10036000FF927C0187B1886387B98FEF8AB92FE745
:1003700082E392E0215080409040E1F700C000000D
:1003800080E390E00E94E50080E190E40197F1F7BE
:1003900080E390E00E94E500E0E9CE2EDD24D394D6
:1003A000C6010197F1F780E390E00E94E500C601E5
:1003B0000197F1F728E0E216F104A9F4F09259014F
:1003C000E092580188E390E00E94E50088E090E028
:1003D0000E94E5000E94740186E090E00E94E50022
:1003E0008FE090E020C084E0E816F10411F5F0926F
:1003F0005901E0925801439880E28BB9439A80E614
:1004000099E00197F1F788E290E00E94E50088E02A
:1004100090E00E94E5000E94740186E090E00E9456
:10042000E5008CE090E0FF90EF90DF90CF900C948F
:10043000E500FF90EF90DF90CF900895CF92DF928C
:10044000EF92FF920F931F93CF93DF938C01C12CF8
:10045000D12CA0E0B0E0C0E0D0E00AC0F6013196B7
:100460006894EE24E5F8FE1002C02196DF016F01CA
:10047000C417D50749F4EC01CA0FDB1FF90140E0AE
:1004800050E0A21BB30B0DC0F801F1908F01FF20CB
:1004900091F3C616D70614F3EECF1193AF01421BAA
:1004A000530B1991103241F0112331F0CD018E0F11
:1004B0009F1F861797078CF3F901E40FF51F108231
:1004C000CA01DF91CF911F910F91FF90EF90DF90C4
:1004D000CF900895AC01FC0120E030E00BC0819189
:1004E000803219F42F5F3F4F05C0811103C02F5F89
:1004F0003F4F06C0CF01841B950B861797077CF3EF
:10050000C90108951F93CF93DF93FC01A0E0B0E0F1
:1005100020E030E0C0E0D0E005C01196103211F4C8
:1005200021969D01C417D50749F4422F532FFC0192
:10053000E40FF51F40E050E0CF010CC011911123F2
:10054000A1F3A617B7074CF3F0CFAF01481B590B27
:100550002F5F3F4FA191A03229F0AA2319F026174F
:1005600037079CF3CA01DF91CF911F910895AF9295
:10057000BF92CF92DF92EF92FF925C010E947401D2
:10058000E12CF12CC12CD12C26C08A30B1F590E1A0
:10059000E916F1046CF58FEFE81AF80A07C090E449
:1005A000C916D104FCF420E1E22EF12C90E4C92E0E
:1005B000D12CF501EE0DFF1DB601808190E00E9467
:1005C00027018FEFE81AF80A9FEFC91AD90A80E2CB
:1005D000E816F104BCF4F501EE0DFF1D80818111D8
:1005E000D4CF10C08A3071F080E1E82EF12CE1CF39
:1005F00090E1E916F10431F4D2CF90E1E916F1046B
:10060000C1F6CDCFFF90EF90DF90CF90BF90AF902D
:1006100008952F923F924F925F926F927F928F92A6
:100620009F92AF92BF92CF92DF92EF92FF920F9381
:100630001F93CF93DF93CDB7DEB7C056D1090FB666
:10064000F894DEBF0FBECDBF3C012B01BC01C2013F
:100650000E946A024C01A12CB12CE12CF12CC12C7E
:10066000D12C1AE01C0181E0281A310800E24AC0AE
:100670009E012F5F3F4FA501B301C2010E941E02E0
:100680009C01C601820F931F419764F0E1E4F0E002
:10069000EC0FFD1FEE0DFF1D10838FEFE81AF80A17
:1006A000C12CD12CFE01319640E050E081E490E075
:1006B0008C0F9D1F8E0D9F1D07C06191DC01A40F43
:1006C000B51F6C934F5F5F4F42175307B4F337FF6B
:1006D00002C020E030E0C20ED31EE20EF31EA214D0
:1006E000B3046CF4E1E4F0E0EC0FFD1FEE0DFF1D30
:1006F00000838FEFE81AF80A8FEFC81AD80A8FEF35
:10070000A81AB80AA814B9040CF4B2CFE1E4F0E0D6
:10071000EC0FFD1FEE0DFF1D1082CE018F5B9F4F72
:100720000E94B702C05ADF4F0FB6F894DEBF0FBE6B
:10073000CDBFDF91CF911F910F91FF90EF90DF9090
:10074000CF90BF90AF909F908F907F906F905F9071
:100750004F903F902F900895EF92FF92CF93DF93A9
:10076000CDB7DEB72E970FB6F894DEBF0FBECDBF64
:10077000ED88FE8886E08C83FA82E9828FEF9FE71E
:100780009E838D83CE014996AC016F89788DCE0111
:1007900001960E94DB03EF81F885EE0DFF1D1082AC
:1007A0002E960FB6F894DEBF0FBECDBFDF91CF916E
:1007B000FF90EF900895ACE0B0E0E1EEF3E00C9430
:1007C0005C066C015B017A01FC0117821682838151
:1007D00081FFC1C166246394712C6C0E7D1EF601ED
:1007E0009381F50193FD859193FF81915F018823AA
:1007F00009F4ADC1853239F493FD859193FF819160
:100800005F01853229F4B60190E00E94C805E7CF68
:10081000512C10E020E02032A8F48B3261F028F453
:10082000803251F0833271F40BC08D3239F0803355
:1008300049F4216028C02260246025C0286023C0BC
:10084000206121C027FD27C0382F30533A3078F47B
:1008500026FF06C0FAE05F9E300D1124532E13C010
:100860004AE0149F300D1124132F20620CC08E32E9
:1008700021F426FD6CC1206406C08C3611F420687A
:1008800002C0883641F4F50193FD859193FF819173
:100890005F018111C0CF982F9554933018F090527A
:1008A000933030F4F4E0EF0EF11C4FE349830EC0B7
:1008B000833631F0833779F0833509F05DC023C08A
:1008C000F7018081898342E0E40EF11C44244394C3
:1008D000512C430115C0170152E0250E311CF701C0
:1008E0008080918026FF03C0652D70E002C06FEF0D
:1008F0007FEFC4012C870E94BD052C0171012C855E
:10090000022F0F7717C01701F2E02F0E311CF701ED
:100910008080918026FF03C0652D70E002C06FEFDC
:100920007FEFC4012C870E94B2052C012C85022F79
:100930000068710103FD1CC006C0B60180E290E0B2
:100940000E94C8051150812F90E048165906A8F35F
:100950000FC0F40107FD859107FF81914F01B6019A
:1009600090E00E94C80511111150F1E04F1A510892
:100970004114510471F7E8C0843611F0893651F5FD
:10098000F70127FF07C0608171818281938144E074
:1009900050E008C060817181882777FD8095982F8D
:1009A00042E050E0E40EF51E3FE6432E422297FF60
:1009B00009C090958095709561957F4F8F4F9F4F9F
:1009C00050E8452A2AE030E0A3010E94FE05882E67
:1009D000861840C0022F853721F40F7E2AE030E0D0
:1009E0001FC0097F8F36A1F020F4883509F0AFC011
:1009F0000BC0803721F0883709F0A9C001C0006121
:100A000004FF09C0046007C024FF08C0066006C0D8
:100A100028E030E005C020E130E002C020E132E013
:100A2000F70107FF07C0608171818281938144E0F3
:100A300050E006C06081718180E090E042E050E0CB
:100A4000E40EF51EA3010E94FE05882E86188FE78E
:100A5000482E402246FE0BC0042D0E7F851450F414
:100A600044FE0AC042FC08C0042D0E7E05C0982C2E
:100A7000042D03C0982C01C0952C04FF0DC0FE016D
:100A8000E80DF11D8081803311F4097E09C002FF59
:100A900006C09394939404C0802F867809F09394B1
:100AA00003FD12C000FF0DC0582C911650F4510EDA
:100AB0005918912E06C0B60180E290E00E94C80548
:100AC00093949116C0F304C0911610F4191901C043
:100AD00010E004FF10C0B60180E390E00E94C8055A
:100AE00002FF1EC001FF03C088E590E002C088E756
:100AF00090E0B6010CC0802F867891F001FD02C015
:100B000080E201C08BE207FD8DE2B60190E00E9419
:100B1000C80506C0B60180E390E00E94C8055A945B
:100B20008514C0F38A94F301E80DF11DB6018081AC
:100B300090E00E94C8058110F5CF06C0B60180E2A2
:100B400090E00E94C80511501111F8CF48CEF6016F
:100B50002681378102C02FEF3FEFC9012C96E2E1D9
:100B60000C947806FC010590615070400110D8F794
:100B7000809590958E0F9F1F0895FC0161507040E5
:100B800001900110D8F7809590958E0F9F1F0895C2
:100B9000CF92DF92EF92FF926C017B01DB01139603
:100BA0008C9181FD04C0CC24CA94DC2C21C082FF2E
:100BB00010C0FB0126813781848195812817390770
:100BC0008CF40190F081E02DC192DB01ED93FC9358
:100BD00009C0DB011896ED91FC9119978C2D0995B0
:100BE000892B09F7F7018681978101969783868380
:100BF000C601FF90EF90DF90CF900895FA01AA27E9
:100C0000283051F1203181F1E8946F936E7F6E5F4F
:100C10007F4F8F4F9F4FAF4FB1E03ED0B4E03CD0FD
:100C2000670F781F891F9A1FA11D680F791F8A1FE0
:100C3000911DA11D6A0F711D811D911DA11D20D047
:100C400009F468943F912AE0269F11243019305D01
:100C50003193DEF6CF010895462F4770405D4193F2
:100C6000B3E00FD0C9F7F6CF462F4F70405D4A333F
:100C700018F0495D31FD4052419302D0A9F7EACF07
:100C8000B4E0A6959795879577956795BA95C9F736
:100C900000976105710508959B01AC010A2E069429
:100CA0005795479537952795BA95C9F7620F731FE2
:100CB000841F951FA01D08952F923F924F925F921F
:100CC0006F927F928F929F92AF92BF92CF92DF925C
:100CD000EF92FF920F931F93CF93DF93CDB7DEB7C1
:100CE000CA1BDB0B0FB6F894DEBF0FBECDBF099455
:100CF0002A88398848885F846E847D848C849B84AC
:100D0000AA84B984C884DF80EE80FD800C811B81B9
:100D1000AA81B981CE0FD11D0FB6F894DEBF0FBEE8
:0A0D2000CDBFED010895F894FFCF58
:100D2A00434F554E543A00257325632569004C6F8D
:100D3A006E67657220537472696E672E0053686F0E
:100D4A00727420737472696E672E004175746F6DC8
:100D5A00617469632077726170206973206F6666B7
:100D6A002E004175746F6D617469632077726170CA
:080D7A00206973206F6E2E004A
:00000001FF
