:100000000C9434000C9451000C9451000C94510049
:100010000C9451000C9451000C9451000C9451001C
:100020000C9451000C9451000C9451000C9451000C
:100030000C9451000C9451000C9451000C945100FC
:100040000C9451000C9451000C9451000C945100EC
:100050000C9451000C9451000C9451000C945100DC
:100060000C9451000C94510011241FBECFEFD8E026
:10007000DEBFCDBF11E0A0E0B1E0EEE0FDE002C0E8
:1000800005900D92A036B107D9F711E0A0E6B1E0D6
:1000900001C01D92A136B107E1F70E9453000C94F4
:1000A00085060C940000CF93DF93CDB7DEB7A19700
:1000B0000FB6F894DEBF0FBECDBF60ED77E082E3F0
:1000C00090E00E943E0160E084E00E947501E12C16
:1000D000F12C1AE085E0A82E81E0B82E9CE0892E54
:1000E00091E0992E01E2CC24C394D12CCC0EDD1EDC
:1000F00022C0FF92EF921F921F93BF92AF929F92E6
:100100008F921F920F93DF92CF920E949003C601AD
:100110000E94E0012FEF89E698E121508040904055
:10012000E1F700C000002FEFE21AF20A0FB6F894D0
:10013000DEBF0FBECDBF94E0E916F104D4F283E137
:1001400091E00E94E0012FEF87EA91E62150804084
:100150009040E1F700C0000082E291E00E94E001DF
:100160002FEF87EA91E6215080409040E1F700C0F0
:10017000000080E391E00E94E0012FEF87EA91E622
:10018000215080409040E1F700C0000067E471E03A
:1001900086E190E00E9469022FEF87EA91E6215004
:1001A00080409040E1F700C00000E12CF12CC3CF6B
:1001B00090916001992321F095B1982B95B90895FC
:1001C00098B1982B98B908959091600180959923E2
:1001D00021F095B1982395B9089598B1982398B9CD
:1001E0000895EF92FF9288E00E94D80084E0E82E04
:1001F000F12CC7010197F1F788E00E94E400C701E4
:100200000197F1F7FF90EF900895EF92FF927C0134
:1002100080E20E94E40080E10E94E40080910401F9
:10022000883069F4EBB80E94F100E0910001F09190
:100230000101EE0FFF1FEE0FFF1F3197F1F78091C5
:1002400004018430C1F4C701807F99278BB90E94D3
:10025000F10094E0EE0CFF1C9A95E1F7EBB80E94D8
:10026000F1008091000190910101880F991F880F82
:10027000991F0197F1F7FF90EF9008959093010176
:10028000809300017093030160930201089580E25E
:100290000E94E40080E10E94E40080910401883023
:1002A00071F481E08BB90E94F1008091020190917C
:1002B0000301880F991F880F991F0197F1F780910B
:1002C0000401843089F41BB80E94F10080E18BB9ED
:1002D0000E94F1008091020190910301880F991F03
:1002E000880F991F0197F1F70895EF92FF92CF932E
:1002F000C82F6093600188E3662311F084B901C0C0
:1003000087B98AB1806F8AB92FE782E392E02150E2
:1003100080409040E1F700C0000080E390E00E9440
:100320000501E0E1F0E43197F1F780E390E00E940D
:10033000050160E9E62EFF24F394F7013197F1F708
:1003400080E390E00E940501F7013197F1F7C83092
:10035000B1F4C09304018AB18FEF8AB988E390E0C9
:100360000E94050188E090E00E9405010E9447017B
:1003700086E090E00E9405018FE090E018C0C43054
:10038000D9F4C093040180E290E00E94050188E264
:1003900090E00E94050188E090E00E9405010E9423
:1003A000470186E090E00E9405018CE090E0CF914B
:1003B000FF90EF900C940501CF91FF90EF9008957E
:1003C000AF92BF92CF92DF92EF92FF92CF935C01F8
:1003D0000E944701E12CF12CC12CD12C5AC08A304B
:1003E00009F069C020E1E216F1040CF05FC08FEF64
:1003F000E81AF80A08C090E4C916D1040CF050C0FD
:1004000080E1E82EF12CC0E4CC2ED12CF501EE0DCC
:10041000FF1DC081C60180680E94050180E20E9424
:10042000D80080E10E94E40080910401883069F4E2
:10043000CBB90E94F100E0910001F0910101EE0FB3
:10044000FF1FEE0FFF1F3197F1F7809104018430F9
:10045000B1F48C2F807F8BB90E94F10020E1C29F04
:10046000C00111248BB90E94F100E0910001F091CC
:100470000101EE0FFF1FEE0FFF1F3197F1F78FEF16
:10048000E81AF80A9FEFC91AD90A20E2E216F10425
:10049000C4F4F501EE0DFF1D80818111A0CF11C0C4
:1004A0008A3079F070E1E72EF12CB0CF90E1E916B7
:1004B000F10439F4A0CF20E1E216F10409F0A6CF4F
:1004C0009ACFCF91FF90EF90DF90CF90BF90AF90F9
:1004D00008952F923F924F925F926F927F928F92E8
:1004E0009F92AF92BF92CF92DF92EF92FF920F93C3
:1004F0001F93CF93DF93CDB7DEB7C456D1090FB6A4
:10050000F894DEBF0FBECDBFA5969FAF8EAFA59767
:10051000FB0140E050E00BC02191203219F44F5F05
:100520005F4F05C0211103C04F5F5F4F0AC09F019D
:10053000261B370BA5968EAD9FADA59728173907BB
:100540005CF3A3961FAE1EAEA39720E030E0E0E080
:10055000F0E08E010F5F1F4F3A0191E0691A7108B8
:10056000B0E22B2E9EC0AFEFEA1AFA0AB0E25B129D
:100570000CC08FEFC81AD80A570107C04B01E12CF5
:10058000F12CA12CB12CC12CD12CA396AEADBFADBA
:10059000A397CA16DB0649F44B018A0C9B1C680121
:1005A000E12CF12CA01AB10A13C0D4015D904D01C9
:1005B000552091F3A5968EAD9FADA597E816F90647
:1005C00094F2EACFD6013D926D017D01E01AF10A65
:1005D000D4013D904D01B0E23B120DC06801CE0C3C
:1005E000DF1CD6011C926F01CE0CDF1CB1E1CB16D3
:1005F000D10474F419C0332089F325014C0C5D1C1F
:10060000A5968EAD9FADA59748165906DCF2E6CFAC
:10061000E1E4F0E0EC0FFD1FE20FF31F9AE090839E
:100620002F5F3F4FE0E0F0E05801C12CD12CA1E456
:100630008A2E912C8C0E9D1E820E931E0BC0D5010E
:100640003D905D0124014C0C5D1CD2013C92BFEF3A
:10065000CB1ADB0ACE14DF0494F3F7FE02C0E12CC0
:10066000F12CEE0DFF1D2E0D3F1DA3968EAD9FADFF
:10067000A3978615970564F491E4E92EF12CEC0E0E
:10068000FD1EE20EF31ED7012C922F5F3F4F3196D5
:10069000A3968EAD9FADA3970196A3969FAF8EAF05
:1006A000A397A396AEADBFADA397A417B5070CF45F
:1006B00065CF7E01B1E4EB0EF11CF701E20FF31FF1
:1006C0001082FF92EF928DE591E09F938F931F929E
:1006D00080E28F93FF92EF920E949003C7010E94E5
:1006E000E0010FB6F894DEBF0FBECDBFCC59DF4F8F
:1006F0000FB6F894DEBF0FBECDBFDF91CF911F9133
:100700000F91FF90EF90DF90CF90BF90AF909F90B0
:100710008F907F906F905F904F903F902F900895B3
:10072000EF92FF92CF93DF93CDB7DEB72E970FB640
:10073000F894DEBF0FBECDBFED88FE888F89988DFF
:1007400026E02C83FA82E98297FF02C080E090E8DD
:1007500001979E838D83CE014B96AC01698D7A8D76
:10076000CE0101960E94CD034D815E8157FD0AC0E6
:100770002F813885421753070CF49A01F701E20FD5
:10078000F31F10822E960FB6F894DEBF0FBECDBFBA
:10079000DF91CF91FF90EF900895ACE0B0E0E3EDF2
:1007A000F3E00C944E066C015B017A01FC011782A8
:1007B0001682838181FFC1C166246394712C6C0E03
:1007C0007D1EF6019381F50193FD859193FF819143
:1007D0005F01882309F4ADC1853239F493FD859119
:1007E00093FF81915F01853229F4B60190E00E9468
:1007F000BA05E7CF512C10E020E02032A8F48B326C
:1008000061F028F4803251F0833271F40BC08D32E4
:1008100039F0803349F4216028C02260246025C06B
:10082000286023C0206121C027FD27C0382F305306
:100830003A3078F426FF06C0FAE05F9E300D1124AE
:10084000532E13C04AE0149F300D1124132F206241
:100850000CC08E3221F426FD6CC1206406C08C369B
:1008600011F4206802C0883641F4F50193FD8591AA
:1008700093FF81915F018111C0CF982F95549330E0
:1008800018F09052933030F4F4E0EF0EF11C4FE387
:1008900049830EC0833631F0833779F0833509F010
:1008A0005DC023C0F7018081898342E0E40EF11C22
:1008B00044244394512C430115C0170152E0250EE6
:1008C000311CF7018080918026FF03C0652D70E008
:1008D00002C06FEF7FEFC4012C870E94AF052C018F
:1008E00071012C85022F0F7717C01701F2E02F0E30
:1008F000311CF7018080918026FF03C0652D70E0D8
:1009000002C06FEF7FEFC4012C870E94A4052C0169
:100910002C85022F0068710103FD1CC006C0B601C2
:1009200080E290E00E94BA051150812F90E04816B5
:100930005906A8F30FC0F40107FD859107FF8191C7
:100940004F01B60190E00E94BA0511111150F1E07B
:100950004F1A51084114510471F7E8C0843611F060
:10096000893651F5F70127FF07C0608171818281C7
:10097000938144E050E008C060817181882777FD51
:100980008095982F42E050E0E40EF51E3FE6432E9E
:10099000422297FF09C090958095709561957F4F91
:1009A0008F4F9F4F50E8452A2AE030E0A3010E9474
:1009B000F005882E861840C0022F853721F40F7E5F
:1009C0002AE030E01FC0097F8F36A1F020F488357F
:1009D00009F0AFC00BC0803721F0883709F0A9C0FB
:1009E00001C0006104FF09C0046007C024FF08C003
:1009F000066006C028E030E005C020E130E002C01B
:100A000020E132E0F70107FF07C060817181828138
:100A1000938144E050E006C06081718180E090E005
:100A200042E050E0E40EF51EA3010E94F005882E7E
:100A300086188FE7482E402246FE0BC0042D0E7FFD
:100A4000851450F444FE0AC042FC08C0042D0E7EFA
:100A500005C0982C042D03C0982C01C0952C04FFD0
:100A60000DC0FE01E80DF11D8081803311F4097E77
:100A700009C002FF06C09394939404C0802F867827
:100A800009F0939403FD12C000FF0DC0582C91167D
:100A900050F4510E5918912E06C0B60180E290E034
:100AA0000E94BA0593949116C0F304C0911610F4F5
:100AB000191901C010E004FF10C0B60180E390E0F6
:100AC0000E94BA0502FF1EC001FF03C088E590E046
:100AD00002C088E790E0B6010CC0802F867891F0C4
:100AE00001FD02C080E201C08BE207FD8DE2B6018C
:100AF00090E00E94BA0506C0B60180E390E00E9433
:100B0000BA055A948514C0F38A94F301E80DF11DD7
:100B1000B601808190E00E94BA058110F5CF06C031
:100B2000B60180E290E00E94BA0511501111F8CF91
:100B300048CEF6012681378102C02FEF3FEFC90171
:100B40002C96E2E10C946A06FC010590615070401D
:100B50000110D8F7809590958E0F9F1F0895FC0186
:100B60006150704001900110D8F7809590958E0FDC
:100B70009F1F0895CF92DF92EF92FF926C017B014D
:100B8000DB0113968C9181FD04C0CC24CA94DC2C2B
:100B900021C082FF10C0FB012681378184819581AD
:100BA000281739078CF40190F081E02DC192DB0108
:100BB000ED93FC9309C0DB011896ED91FC91199718
:100BC0008C2D0995892B09F7F7018681978101966C
:100BD00097838683C601FF90EF90DF90CF900895B2
:100BE000FA01AA27283051F1203181F1E8946F935E
:100BF0006E7F6E5F7F4F8F4F9F4FAF4FB1E03ED004
:100C0000B4E03CD0670F781F891F9A1FA11D680FA1
:100C1000791F8A1F911DA11D6A0F711D811D911DD4
:100C2000A11D20D009F468943F912AE0269F112449
:100C30003019305D3193DEF6CF010895462F4770AD
:100C4000405D4193B3E00FD0C9F7F6CF462F4F7008
:100C5000405D4A3318F0495D31FD4052419302D066
:100C6000A9F7EACFB4E0A69597958795779567950C
:100C7000BA95C9F700976105710508959B01AC010C
:100C80000A2E06945795479537952795BA95C9F733
:100C9000620F731F841F951FA01D08952F923F920E
:100CA0004F925F926F927F928F929F92AF92BF927C
:100CB000CF92DF92EF92FF920F931F93CF93DF9328
:100CC000CDB7DEB7CA1BDB0B0FB6F894DEBF0FBE85
:100CD000CDBF09942A88398848885F846E847D84D2
:100CE0008C849B84AA84B984C884DF80EE80FD80D4
:100CF0000C811B81AA81B981CE0FD11D0FB6F8944A
:0E0D0000DEBF0FBECDBFED010895F894FFCF0A
:100D0E003200D00704434F554E543A0025732563E5
:100D1E002569004C6F6E67657220537472696E6739
:100D2E002E0053686F727420737472696E672E0092
:100D3E004175746F6D61746963207772617020699B
:100D4E0073206F66662E004175746F6D61746963F2
:100D5E002077726170206973206F6E2E00257300EC
:00000001FF
