:100000000C9434000C9451000C9451000C94510049
:100010000C9451000C9451000C9451000C9451001C
:100020000C9451000C9451000C9451000C9451000C
:100030000C9451000C9451000C9451000C945100FC
:100040000C9451000C9451000C9451000C945100EC
:100050000C9451000C9451000C9451000C945100DC
:100060000C9451000C94510011241FBECFEFD8E026
:10007000DEBFCDBF11E0A0E0B1E0E6EFFCE002C0E2
:1000800005900D92AC35B107D9F711E0ACE5B1E0C0
:1000900001C01D92AE35B107E1F70E9453000C94E8
:1000A00079060C940000CF93DF93CDB7DEB7A1970C
:1000B0000FB6F894DEBF0FBECDBF60E084E00E94B3
:1000C0006701E12CF12C1AE080E0A82E81E0B82E27
:1000D00097E0892E91E0992E01E2CC24C394D12C93
:1000E000CC0EDD1E22C0FF92EF921F921F93BF9293
:1000F000AF929F928F921F920F93DF92CF920E94A6
:100100008403C6010E94DA012FEF89E698E12150AD
:1001100080409040E1F700C000002FEFE21AF20AA1
:100120000FB6F894DEBF0FBECDBF94E0E916F10420
:10013000D4F28EE091E00E94DA012FEF87EA91E697
:10014000215080409040E1F700C000008DE191E037
:100150000E94DA012FEF87EA91E62150804090401B
:10016000E1F700C000008BE291E00E94DA012FEF7E
:1001700087EA91E6215080409040E1F700C00000FE
:1001800062E471E086E190E00E945D022FEF87EA71
:1001900091E6215080409040E1F700C00000E12C42
:1001A000F12CC3CF90915D01992321F095B1982B4B
:1001B00095B9089598B1982B98B9089590915D01DB
:1001C0008095992321F095B1982395B9089598B118
:1001D000982398B9089588E00E94D20084E090E0C6
:1001E0000197F1F788E00C94DE001F93CF93DF9323
:1001F00017B1D4B1CAB1579880E20E94DE0080E105
:100200000E94D20002C00E94EB004F99FCCF88EC04
:1002100090E00197F1F717B9D4B9CAB9DF91CF913E
:100220001F910895EF92FF927C0180E20E94DE0010
:1002300080E10E94DE0080915C01883029F4EBB8F7
:100240000E94EB000E94F50080915C018430B1F4C3
:10025000C701807F99278BB90E94EB0084E090E072
:100260000197F1F784E0EE0CFF1C8A95E1F7EBB8FB
:100270000E94EB00FF90EF900C94F500FF90EF9040
:10028000089580E20E94DE0080E10E94DE008091FD
:100290005C01883041F481E08BB90E94EB0080E47E
:1002A0009FE10197F1F780915C01843079F41BB8EC
:1002B0000E94EB0084E090E00197F1F780E18BB9B8
:1002C0000E94EB0080E49FE10197F1F70895EF921F
:1002D000FF92CF93C82F60935D0188E3662311F0EE
:1002E00084B901C087B98AB1806F8AB92FE782E3E8
:1002F00092E0215080409040E1F700C0000080E390
:1003000090E00E941201E0E1F0E43197F1F780E320
:1003100090E00E94120190E9E92EFF24F394F70186
:100320003197F1F780E390E00E941201F7013197D5
:10033000F1F7C830B1F4C0935C018AB18FEF8AB98C
:1003400088E390E00E94120188E090E00E94120190
:100350000E94410186E090E00E9412018FE090E04F
:1003600020C0C43019F5C0935C0188E00E94DE0013
:1003700080E28BB988E00E94D20080E699E0019784
:10038000F1F788E290E00E94120188E090E00E947C
:1003900012010E94410186E090E00E9412018CE06F
:1003A00090E0CF91FF90EF900C941201CF91FF90CD
:1003B000EF9008958F929F92AF92BF92CF92DF926B
:1003C000EF92FF92CF935C010E944101E12CF12C4E
:1003D000C12CD12C54E0852E912C4DC08A3009F0CF
:1003E0005CC020E1E216F1040CF052C08FEFE81A75
:1003F000F80A08C090E4C916D1040CF043C040E1EB
:10040000E42EF12C30E4C32ED12CF501EE0DFF1DAE
:10041000C081C60180680E94120180E20E94D20061
:1004200080E10E94DE0080915C01883029F4CBB924
:100430000E94EB000E94F50080915C01843089F4F9
:100440008C2F807F8BB90E94EB00C4010197F1F7DC
:1004500020E1C29FC00111248BB90E94EB000E94D1
:10046000F5008FEFE81AF80A9FEFC91AD90A20E2BF
:10047000E216F104C4F4F501EE0DFF1D8081811137
:10048000ADCF11C08A3079F020E1E22EF12CBDCF42
:1004900090E1E916F10439F4ADCF20E1E216F10460
:1004A00009F0B3CFA7CFCF91FF90EF90DF90CF901F
:1004B000BF90AF909F908F9008952F923F924F9250
:1004C0005F926F927F928F929F92AF92BF92CF92E4
:1004D000DF92EF92FF920F931F93CF93DF93CDB7ED
:1004E000DEB7C456D1090FB6F894DEBF0FBECDBF3C
:1004F000A5969FAF8EAFA597FB0140E050E00BC0E3
:100500002191203219F44F5F5F4F05C0211103C0C4
:100510004F5F5F4F0AC09F01261B370BA5968EAD1C
:100520009FADA597281739075CF3A3961FAE1EAEA3
:10053000A39720E030E0E0E0F0E08E010F5F1F4F76
:100540003A0191E0691A710880E2282E9EC0AFEF4F
:10055000EA1AFA0AB0E25B120CC08FEFC81AD80A86
:10056000570107C04B01E12CF12CA12CB12CC12C5F
:10057000D12CA396AEADBFADA397CA16DB0649F446
:100580004B018A0C9B1C6801E12CF12CA01AB10ACA
:1005900013C0D4015D904D01552091F3A5968EAD09
:1005A0009FADA597E816F90694F2EACFD6013D92E1
:1005B0006D017D01E01AF10AD4013D904D01B0E2D8
:1005C0003B120DC06801CE0CDF1CD6011C926F01DE
:1005D000CE0CDF1CB1E1CB16D10474F419C033206A
:1005E00089F325014C0C5D1CA5968EAD9FADA5979A
:1005F00048165906DCF2E6CFE1E4F0E0EC0FFD1F0F
:10060000E20FF31F9AE090832F5F3F4FE0E0F0E0AE
:100610005801C12CD12CB1E48B2E912C8C0E9D1E37
:10062000820E931E0BC0D5013D905D0124014C0C40
:100630005D1CD2013C92BFEFCB1ADB0ACE14DF0463
:1006400094F3F7FE02C0E12CF12CEE0DFF1D2E0DF0
:100650003F1DA3968EAD9FADA3978615970564F4B5
:10066000A1E4EA2EF12CEC0EFD1EE20EF31ED701E2
:100670002C922F5F3F4F3196A3968EAD9FADA397DF
:100680000196A3969FAF8EAFA397A396AEADBFADD5
:10069000A397A417B5070CF465CF7E01B1E4EB0E68
:1006A000F11CF701E20FF31F1082FF92EF9288E531
:1006B00091E09F938F931F9280E28F93FF92EF922E
:1006C0000E948403C7010E94DA010FB6F894DEBFCE
:1006D0000FBECDBFCC59DF4F0FB6F894DEBF0FBEB3
:1006E000CDBFDF91CF911F910F91FF90EF90DF90E1
:1006F000CF90BF90AF909F908F907F906F905F90C2
:100700004F903F902F900895EF92FF92CF93DF93F9
:10071000CDB7DEB72E970FB6F894DEBF0FBECDBFB4
:10072000ED88FE888F89988D26E02C83FA82E982F5
:1007300097FF02C080E090E801979E838D83CE01F1
:100740004B96AC01698D7A8DCE0101960E94C10352
:100750004D815E8157FD0AC02F81388542175307AE
:100760000CF49A01F701E20FF31F10822E960FB6D8
:10077000F894DEBF0FBECDBFDF91CF91FF90EF9019
:100780000895ACE0B0E0E7ECF3E00C9442066C01B5
:100790005B017A01FC0117821682838181FFC1C14E
:1007A00066246394712C6C0E7D1EF6019381F50115
:1007B00093FD859193FF81915F01882309F4ADC179
:1007C000853239F493FD859193FF81915F018532E4
:1007D00029F4B60190E00E94AE05E7CF512C10E05D
:1007E00020E02032A8F48B3261F028F4803251F0FE
:1007F000833271F40BC08D3239F0803349F42160BB
:1008000028C02260246025C0286023C0206121C048
:1008100027FD27C0382F30533A3078F426FF06C022
:10082000FAE05F9E300D1124532E13C04AE0149F4E
:10083000300D1124132F20620CC08E3221F426FDBE
:100840006CC1206406C08C3611F4206802C0883662
:1008500041F4F50193FD859193FF81915F01811131
:10086000C0CF982F9554933018F09052933030F4B5
:10087000F4E0EF0EF11C4FE349830EC0833631F0F4
:10088000833779F0833509F05DC023C0F70180819B
:10089000898342E0E40EF11C44244394512C43012B
:1008A00015C0170152E0250E311CF70180809180A0
:1008B00026FF03C0652D70E002C06FEF7FEFC4011B
:1008C0002C870E94A3052C0171012C85022F0F7724
:1008D00017C01701F2E02F0E311CF70180809180C4
:1008E00026FF03C0652D70E002C06FEF7FEFC401EB
:1008F0002C870E9498052C012C85022F006871011D
:1009000003FD1CC006C0B60180E290E00E94AE0567
:100910001150812F90E048165906A8F30FC0F4013A
:1009200007FD859107FF81914F01B60190E00E947C
:10093000AE0511111150F1E04F1A51084114510444
:1009400071F7E8C0843611F0893651F5F70127FFB9
:1009500007C0608171818281938144E050E008C0CA
:1009600060817181882777FD8095982F42E050E063
:10097000E40EF51E3FE6432E422297FF09C09095F4
:100980008095709561957F4F8F4F9F4F50E8452A16
:100990002AE030E0A3010E94E405882E861840C0BA
:1009A000022F853721F40F7E2AE030E01FC0097F37
:1009B0008F36A1F020F4883509F0AFC00BC0803726
:1009C00021F0883709F0A9C001C0006104FF09C007
:1009D000046007C024FF08C0066006C028E030E0BD
:1009E00005C020E130E002C020E132E0F70107FF5E
:1009F00007C0608171818281938144E050E006C02C
:100A00006081718180E090E042E050E0E40EF51EEC
:100A1000A3010E94E405882E86188FE7482E402205
:100A200046FE0BC0042D0E7F851450F444FE0AC010
:100A300042FC08C0042D0E7E05C0982C042D03C076
:100A4000982C01C0952C04FF0DC0FE01E80DF11D8E
:100A50008081803311F4097E09C002FF06C093949F
:100A6000939404C0802F867809F0939403FD12C0FC
:100A700000FF0DC0582C911650F4510E5918912EAC
:100A800006C0B60180E290E00E94AE0593949116F4
:100A9000C0F304C0911610F4191901C010E004FF4E
:100AA00010C0B60180E390E00E94AE0502FF1EC0B8
:100AB00001FF03C088E590E002C088E790E0B6013E
:100AC0000CC0802F867891F001FD02C080E201C049
:100AD0008BE207FD8DE2B60190E00E94AE0506C0F4
:100AE000B60180E390E00E94AE055A948514C0F3ED
:100AF0008A94F301E80DF11DB601808190E00E9417
:100B0000AE058110F5CF06C0B60180E290E00E94EC
:100B1000AE0511501111F8CF48CEF601268137816C
:100B200002C02FEF3FEFC9012C96E2E10C945E0664
:100B3000FC010590615070400110D8F780959095A8
:100B40008E0F9F1F0895FC016150704001900110AD
:100B5000D8F7809590958E0F9F1F0895CF92DF92C2
:100B6000EF92FF926C017B01DB0113968C9181FD6A
:100B700004C0CC24CA94DC2C21C082FF10C0FB012D
:100B80002681378184819581281739078CF401905B
:100B9000F081E02DC192DB01ED93FC9309C0DB01F4
:100BA0001896ED91FC9119978C2D0995892B09F7D1
:100BB000F70186819781019697838683C601FF900E
:100BC000EF90DF90CF900895FA01AA27283051F1D5
:100BD000203181F1E8946F936E7F6E5F7F4F8F4F6E
:100BE0009F4FAF4FB1E03ED0B4E03CD0670F781FCD
:100BF000891F9A1FA11D680F791F8A1F911DA11DB2
:100C00006A0F711D811D911DA11D20D009F46894EA
:100C10003F912AE0269F11243019305D3193DEF692
:100C2000CF010895462F4770405D4193B3E00FD048
:100C3000C9F7F6CF462F4F70405D4A3318F0495D33
:100C400031FD4052419302D0A9F7EACFB4E0A69516
:100C50009795879577956795BA95C9F70097610538
:100C6000710508959B01AC010A2E0694579547958E
:100C700037952795BA95C9F7620F731F841F951F83
:100C8000A01D08952F923F924F925F926F927F9294
:100C90008F929F92AF92BF92CF92DF92EF92FF928C
:100CA0000F931F93CF93DF93CDB7DEB7CA1BDB0B38
:100CB0000FB6F894DEBF0FBECDBF09942A883988DD
:100CC00048885F846E847D848C849B84AA84B984E4
:100CD000C884DF80EE80FD800C811B81AA81B981F0
:100CE000CE0FD11D0FB6F894DEBF0FBECDBFED0104
:060CF0000895F894FFCF07
:100CF600434F554E543A00257325632569004C6FC2
:100D06006E67657220537472696E672E0053686F42
:100D1600727420737472696E672E004175746F6DFC
:100D2600617469632077726170206973206F6666EB
:100D36002E004175746F6D617469632077726170FE
:0C0D4600206973206F6E2E0025730000E2
:00000001FF
